:020000040800F2
:10000000102100209901000801460008753E0008F3
:10001000FF450008891800089550000800000000FE
:1000200000000000000000000000000001010008C6
:100030008B1D00080000000045010008154900085C
:10004000B3010008B3010008B3010008B3010008C0
:10005000B3010008B3010008B3010008B3010008B0
:10006000B3010008B3010008B3010008251D000812
:10007000B3010008B3010008311D00083D1D000850
:10008000491D0008551D0008B3010008B301000810
:10009000B3010008B3010008B3010008B301000870
:1000A000B3010008B3010008B3010008B301000860
:1000B000B3010008B3010008BD490008B3010008FE
:1000C000B3010008B3010008B3010008B301000840
:1000D000B3010008614F0008B14F0008B3010008E8
:1000E000B3010008B3010008B3010008DFF80CD029
:1000F00000F03EFD00480047A96B000810210020D9
:10010000224B19680868B0E8F00F80F30988BFF344
:100110006F8F4FF0000080F311884EF00D0E704786
:100120000000000006480068006880F3088862B696
:1001300061B6BFF34F8FBFF36F8F00DF00BF00BF0B
:1001400008ED00E0EFF30980BFF36F8F0F4B1A68E3
:1001500020E9F00F106008B54FF0500080F31188CF
:10016000BFF34F8FBFF36F8F07F0C8FB4FF0000056
:1001700080F31188BDE8084019680868B0E8F00FFE
:1001800080F30988BFF36F8F704700BFBC00002069
:10019000EFF3058070470000064880470648004797
:1001A000FEE7FEE7FEE7FEE7FEE7FEE7FEE7FEE727
:1001B000FEE7FEE7BB490008ED000008202A04DB4B
:1001C000203A21FA02F00021704721FA02F3D040D0
:1001D000C2F12002914008431946704740EA0103EA
:1001E0009B0703D009E008C9121F08C0042AFAD2ED
:1001F00003E011F8013B00F8013B521EF9D27047B1
:10020000D2B201E000F8012B491EFBD27047002258
:10021000F6E710B513460A4604461946FFF7F0FF05
:10022000204610BD70B50F4D00B92868002412E0BB
:100230000A4602E09E4203D0521C1378002BF9D1EB
:10024000DAB2224305D02BB124B1002100F8011B02
:1002500004E00446401C0678002EE9D128602046C0
:1002600070BD00001C010020F0B480EA0102D40F30
:100270004200B2EB410F02D20246084611464A0044
:1002800042D0C30DDDB2C1F3C752AD1A202D35DA0D
:10029000C1F3160141F4000204B15242C5F1200637
:1002A00002FA06F12A411044B3EBD05F23D0C4B167
:1002B000012DA0EBC35009DCF0BC4FF0004202EA74
:1002C000C352DBB200F5000000F069BA400000F153
:1002D000807000EBC350A0F1807040EAD1704900FB
:1002E00009E0490841EAC071A0EBC35000F50000E5
:1002F000400800EBC350F0BC00F048BA6142012254
:1003000002EB4101001BF6E7F0BC704781F00041B1
:10031000AAE780F00040A7E780EA010210B502F0EA
:100320000043400022D04A001FD0010E01EB1261B1
:10033000C0F35600C2F3560240F4000042F400023B
:10034000A0FB022000047F39140400D0401C50EAB6
:10035000124001D44000491EC2B20C0604EBD0107A
:10036000401C4008802A02D003E0002010BD20F08D
:100370000100002900DA0020184310BD30B480EAE3
:10038000010202F0004530F0004221F0004013D09D
:1003900090B1C30DD40DC2F31601C0F31600E41AD8
:1003A00041F4000140F400027D34914201D3641C09
:1003B00000E04900002C02DA30BC002070474FF406
:1003C00000000023914201D3891A034340084FEAF9
:1003D0004101F7D151B1914202D14FF0004105E006
:1003E00002D24FF0010101E06FF0010103EBC450B4
:1003F000284430BC00F0CAB9420005D0C0F3C7524F
:100400005242914201DC0020704700EBC15070471E
:100410002DE9FE4F81EA030404F0004421F000417D
:1004200000944FF0000B23F0004350EA01045ED02B
:1004300052EA03045BD0C3F30A54C1F30A552C44B7
:10044000A4F2F3340194A0FB0254C1F3130141F46C
:100450008011C3F3130343F4801301FB024400FB38
:10046000034E840A970A44EA815447EA8357A4FB5F
:10047000076802958D0A05FB07854FEA932C04FB5C
:100480000C542705029D4FEA065847EA1637B5EB8C
:1004900008056EEB070C870E920E47EA811742EAB9
:1004A0008312A7FB0201B6EB0B0164EB00042B0DDA
:1004B00043EA0C335E1844EB1C50DA465146E7FB26
:1004C0000201C5F313044FEA0B3343EA14534FEA16
:1004D0000432019C43EA0603A4F10C040294009C3C
:1004E000CDE900B400F098F903B0BDE8F08F00202A
:1004F0000146F9E7C10F80EAE0700844CA07962375
:10050000002100F04CB996230022114600F047B9B3
:1005100000F0004220F00040C10DC0F3160040F48E
:1005200000007F2901DA00207047962903DCC1F121
:100530009601C84001E096398840002AF4D0404234
:10054000704720F00040C10DC0F3160040F40000D9
:100550007F2901DA00207047962903DCC1F196015A
:10056000C840704796398840704770B5C1F30A5249
:1005700001F000450024C1F3130140F2FF3341F4C0
:1005800080119A4201DA002070BD40F233439A4252
:10059000A2F2334203DC5242FFF710FE00E090402B
:1005A0002C43F1D0404270BDC1F30A5210B5C1F3E3
:1005B000130140F2FF3341F480119A4201DA002026
:1005C00010BD40F233439A42A2F2334203DC52425E
:1005D000FFF7F4FD10BD904010BD00F0004230F078
:1005E00000400AD0C10D01F56071C0F3160042EA67
:1005F0000151C2084007114370470020014670476F
:1006000001F0004330B421F0004150EA010206D06D
:100610000A0DA2F56072C1F31301002A02DC30BC9E
:1006200000207047440F44EAC104C100E01830BC08
:1006300000EBC25000F0AAB8002801DBC0F1004076
:10064000002901DBC1F1004181427047002801DB34
:10065000C0F10040002901DBC1F100418842704730
:1006600030B50B46014600202022012409E021FA82
:1006700002F59D4205D303FA02F5491B04FA02F57F
:100680002844151EA2F10102F1DC30BD2DE9F05F16
:100690000546002092469B468846064681464024F1
:1006A0001BE02846414647462246FFF787FD534652
:1006B0005A46C01A914110D311461846224600F0FE
:1006C00069FA2D1A67EB01084F46224601200021E6
:1006D00000F060FA17EB00094E41201EA4F101045E
:1006E000DFDC484631462A464346BDE8F09F00001D
:1006F0000FB4002300B589B00CA900910B996FF0DD
:100700000042CB601E4B06931E4B07930423CDE99A
:1007100001321D4A089202466B46002000F0F4FAAE
:1007200009B05DF814FB70B586B006464FF0FF3097
:100730000091CDE90101002015460C460490324697
:10074000694604A8FFF7D4FF02460498211825B192
:1007500008B1084600E020462860049800280DD023
:10076000002A02DD0098884208D0081B0094CDE9D9
:1007700001043246694604A8FFF7BAFF06B070BD0F
:10078000410F00085F0F0008D70B00080029A8BF21
:100790007047401C490008BF20F00100704710B4AA
:1007A000B0FA80FC00FA0CF050EA010404BF10BC5F
:1007B000704749B1CCF1200421FA04F411FA0CF18C
:1007C00018BF012121430843A3EB0C01CB1D4FEAC5
:1007D00000614FEA102042BF002010BC704700EBC0
:1007E000C35010440029A4BF10BC7047401C4900EE
:1007F00008BF20F0010010BC704710B5141E73F143
:10080000000408DA401C41F1000192185B411A43D0
:1008100001D120F0010010BD2DE9F04D92469B461C
:1008200011B1B1FA81F202E0B0FA80F220329046C2
:1008300000F0B0F904460F4640EA0A0041EA0B0115
:1008400053465A46084313D0114653EA010019D0C3
:10085000C8F140025046FFF7B1FC05460E4650462F
:100860005946424600F096F9084305D0012004E0BD
:1008700020463946BDE8F08D0020054346EAE07683
:100880002C4337430A986305E40AA0EB08000022D2
:10089000FD0A44EA47540A3002D500200146E9E740
:1008A000010510196941DDE9084500196941BDE8F4
:1008B000F04DA2E72DE9FE4F804681EA0300C00F0C
:1008C0000C46009021F0004123F00045B8EB0200F7
:1008D000A94105D24046214690461C460B46024699
:1008E00023F00040104347D0270DC7F30A00C3F39D
:1008F0000A510290401A019040286BDAC3F31300AA
:1009000040F4801B0098924620B10023D2EB030AEA
:1009100063EB0B0B01985946C0F14002504600F0C2
:1009200039F906460D4650465946019A00F041F9FC
:1009300010EB08006141002487EA115284EAE77352
:100940001A4340D0009A62B3019A012A4FEA075233
:1009500015DC001B61EB02014FF0004202EA075276
:10096000CDE90042001C41F5801132462B46FFF7CD
:1009700053FF03B0BDE8F08F40462146F9E7001B66
:1009800061EB0201001C41F5801300185B41201847
:10099000A2F5001747EB030140EAD570B6196D4187
:1009A00011E06D084FEA360645EAC0754FEA075276
:1009B000001B61EB0201001C41F5801149084FEA60
:1009C00030000019514132462B4603B0BDE8F04FCC
:1009D000FFF713BF0098012240000023D0EB020272
:1009E00063EBE073009821464FEAE074B8EB000037
:1009F00061EB0401E9E783F000435BE781F000412C
:100A000058E72DE9F04D81EA030404F0004B21F092
:100A1000004514464FF0000A23F0004150EA050259
:100A200020D054EA01021DD0C5F30A570246C5F38F
:100A30001303C1F31300C1F30A5640F4801543F4C5
:100A40008013A7EB0608101BD64608F2FD3873EB9F
:100A5000050002D308F1010801E092185B41B8F1EA
:100A6000000F03DA00200146BDE8F08D00204FF4AE
:100A70008011064684460EE0171B73EB050705D36D
:100A8000121B63EB050306434CEA010C49084FEACD
:100A9000300092185B4150EA0107EDD152EA0300A1
:100AA00012D082EA040083EA0501084305D0101B36
:100AB000AB4106D20122002306E000224FF00043A2
:100AC00002E06FF0010253101AEB06004CEB0851E4
:100AD00010EB0A0041EB0B01BDE8F04DFFF78DBEB6
:100AE00070B521F0004303430CD0C1F30A55002434
:100AF000D5EB040564EB0403D617AD1AB34102DB52
:100B00000020014670BD201841EB025170BDC1F3B9
:100B10000A52C1F3130140F2FF3341F480119A42AB
:100B200002DA00200146704740F233439A42A2F2B3
:100B3000334202DC5242FFF741BB00F02BB8000009
:100B400030B5041E71F1000404DB4FF00044404254
:100B500064EB0101141E73F1000405DB1C464FF029
:100B60000043524263EB0403994208BF904230BDF8
:100B7000064C074D06E0E06840F0010394E80700EA
:100B800098471034AC42F6D3FFF7B4FA0489000852
:100B900024890008202A04DB203A00FA02F1002010
:100BA00070479140C2F1200320FA03F319439040AB
:100BB0007047202A06DBCB17203A41FA02F043EABD
:100BC000E07306E041FA02F3D040C2F12002914006
:100BD000084319467047C0B24FF4F05100F022BAF2
:100BE0002DE9FF4F087883B09946FF2805D0491CAE
:100BF0002D2804D00024002008E000200BE0012470
:100C0000F9E700EB800003EB4000491C0B78FF2B59
:100C1000F7D104B1404200230293147819461D46CF
:100C20002D2C01D02B2C04D1521C2D2C13D00024A0
:100C30000294AA461478FF2C0FD00A25A3FB05784E
:100C400001FB05814FF0000C03FB0C11521CE31952
:100C50004AEB0101EEE70124EAE7814453EA01008F
:100C600002D019F5C87F06DA03980021C0E9001107
:100C700007B0BDE8F08F0025AE4E2F46DFF8B882F2
:100C8000184600F0E3F9CDE90001B9F1000002DAFD
:100C9000C9F1000400E004460023A74A1AEB030B45
:100CA00042EB045A12E0E00707D02A4633463846A2
:100CB0004146FFF7ADFB074688462A4633461046B5
:100CC0001946FFF7A5FB05460E466410002CEAD135
:100CD000DDE90001B9F1000F5A46534606DAFFF785
:100CE00090FE3A464346FFF78CFE05E0FFF790FB87
:100CF0003A464346FFF78CFB029A0AB181F0004165
:100D0000039AC2E90001B3E72DE9FF4F1F468DB0FA
:100D1000D7E901464FF0FF382E2045464FF0000935
:100D20000B90B9696D1C0E988847396A82468847CE
:100D30000028F6D1BAF1FF3F0AD024F4D064002E87
:100D400011DDBAF12B0F08D0BAF12D0F0BD102E053
:100D5000404611B08DE744F48064B9696D1C0E986B
:100D600088478246761E6946600501D52D2000E041
:100D70002B208DF8000001F1010B0DF1200809E096
:100D8000B9696D1C0E98884782460F9844F4007428
:100D9000761E0560002E02DDBAF1300FF0D00B99FF
:100DA0008A453ED144F0800406E00F99681CA9F101
:100DB000010944F400740860B9696D1C761E0E9830
:100DC000884782463028F0D02BE00B998A4505D120
:100DD000200603D444F08004761E18E0504604F048
:100DE000DBFB08B30DF11301761E44F400748B4550
:100DF00008D2AAF130000BF8010B200607D5A9F1A3
:100E0000010003E0200602D409F101008146A0059B
:100E100002D50F99681C0860B9696D1C0E98884747
:100E20008246002ED1DC53E0002E51DDBAF1650F71
:100E300002D0BAF1450F4BD1A00549D5B9696D1C57
:100E400024F44074761E0E9888478246002E0CDDEE
:100E50002B2804D0BAF12D0F07D144F48074B9695E
:100E60006D1C0E9888478246761EE00501D52D211F
:100E700000E02B2108F8011BCDF82C8021E00DF1BA
:100E80002901761E44F4007488450CD2AAF1300082
:100E900010F0FF0088F8000002D10B99884509D9AD
:100EA00008F1010806E0E00501D5244801E042F21E
:100EB0000F708146B9696D1C0E98884782460F985D
:100EC0000560002E04DD504604F066FB0028D6D1F4
:100ED000F9690E988847FF208BF8000088F8000019
:100EE0000020069007904B466A4608A906A8FFF71F
:100EF00077FEA00502D46FF001002AE714F0240F5A
:100F00000AD0E00714D1DDE906123868031D3B6002
:100F10000068C0E900120BE0DDE90601FFF770FB95
:100F20000146E00704D13868021D3A60006801609C
:100F300028460EE7000014400000F03FF1D8FFFF04
:100F4000426842B1016811F8013B23B1521EC0E969
:100F50000012184670470121C160881E7047426820
:100F60005AB1C368016843B983688B4205D0491EF2
:100F7000521CC0E90012002070474FF0FF3070474C
:100F80002DE9F04D00231A461B1A8A4103DB00208D
:100F90000146BDE8F08DC1F30A52C1F3130141F4DB
:100FA00080154FF0000BD10702D100186D41521E81
:100FB0000027044640F2FF11384601EB620A3E4624
:100FC0008046024600204FF48011FFF7F7F8C2195F
:100FD0007141BB1846EB0100B4EB030C75EB000C40
:100FE00004D3E41A65EB000517460E46241908F1F0
:100FF00001006D4180463428E3DDF91946EB060017
:10100000091BA84103D24FF0FF32134601E0002232
:1010100013461BEB070046EB0A51BDE8F04DFFF706
:10102000ECBB00007F2801D9002208E0064A02EB51
:101030005002C007127800D1120902F00F020120FD
:101040009040084070470000108800080EB540F23C
:10105000334202920022CDE900221346FFF7DCFB67
:1010600003B000BD70B5044600688168C943C90774
:1010700017D1816821F00101816001F0BFFC0546B4
:101080000AE000BF01F0BAFC401B022804D9206826
:101090008068C043C00706D020688068C043C0078E
:1010A000F0D0002070BDA06A40F01000A062E06A9D
:1010B00040F00100E062012070BD10B50146406AB9
:1010C000826A12F0500F05D0006A026BBDE8104032
:1010D00008461047816A41F400718162016889689D
:1010E000C1F3424107290CD1017B51B9816A21F436
:1010F00080718162816AC90403D4816A41F001016F
:10110000816200F0DDFF10BD10B5406A816A41F0D8
:1011100040018162C16A41F00401C16200F0D2FF66
:1011200010BD10B5406A00F0CCFF10BDF8B5002628
:101130000446009600688168C943C9072DD08168BC
:1011400041F001018160164816490068B0FBF1F0DA
:1011500000E0401E00900028FBD101F04FFC054646
:1011600016E000BF01F04AFC401B022810D920689D
:101170008068C043C0070BD0A06A40F01000A06296
:10118000E06A40F00100E06284F824600120F8BDCC
:1011900020688068C043C007E4D10020F8BD00008B
:1011A000B800002040420F0030B53F488BB00178B6
:1011B000491CC9B2017001290FD00024022911D0A5
:1011C000032925D004293ED0052946D006295DD023
:1011D000072900D104700BB030BD0BB0BDE8304022
:1011E00000F00ABA3148B0F90410CDE901140394B3
:1011F0000494B0F902100091B0F900302C48B0F915
:101200000420B0F90210B0F9000000F08BF9E2E719
:1012100040F24C4040F26C714FF4E16340F2A46242
:10122000CDE90410CDE902234FF4C86140F2DC524D
:10123000CDE900214FF4AF6340F214524FF49661B0
:1012400000F018F9C7E71B480088FFF75CF90BB0FE
:101250001949BDE8304000F0CFB818480568284665
:10126000FFF748F90A9408940994059407940394A5
:10127000049406940094CDE90140114800231A46D5
:10128000008801B228B200F017FAA4E70D484179AE
:10129000012901D002299ED144710BB00121BDE882
:1012A0003040022000F08EB85C00002006000020D4
:1012B00000000020A4000020B81E6342600000204F
:1012C0006C0000206401002070B50025044628460B
:1012D0004A1E04E0235C401C2B44DDB2C0B29042A5
:1012E000F8DB601810F8010CA8424CD12078AA282D
:1012F00049D16078AF2846D1A1780120012904D1D5
:10130000217902293FD120490871A178022914D1FD
:1013100021791E4A012905D1D07010715071907148
:10132000D07110722179A02900D110702079A128E4
:1013300003D1A078294600F02BF8A078102802D11C
:10134000294600F025F8A078112802D1294600F09E
:101350001FF8A078122802D1294600F019F8A078C9
:10136000132802D1294600F013F8A078142802D1DE
:10137000294600F00DF8A078152804D12946BDE8CB
:10138000704000F005B870BD640100201A03002011
:101390000B4AAA2313705370EF2393700223D37068
:1013A0001071517100210846135C401C1944C0B2F1
:1013B000C9B20628F8D391710721014803F06CBE29
:1013C000270300200B4AAA2313705370EE23937057
:1013D0000223D3701071517100210846135C401C28
:1013E0001944C0B2C9B20628F8D391710721014847
:1013F00003F052BE27030020F8B51C4C0246AA2079
:101400002070607005201A4E0F46A07004253146EA
:101410001046FEF781FFFFF794F8ADF800009DF845
:10142000010020719DF80000607131463846FEF7DA
:1014300073FFFFF786F8ADF800009DF80100A0717A
:101440009DF80000E07108210022E5701046235C41
:10145000401C1A44C0B2D2B28842F8D36254BDE8EC
:10146000F8400248491C03F017BE00002703002083
:101470000000C8423FB42A48AA21002201704170EE
:10148000032181709DF8011001719DF800104171D8
:101490009DF8051081719DF80410C1719DF8091027
:1014A00001729DF8081041729DF80D1081729DF82F
:1014B0000C10C1729DF8191001739DF8181041733A
:1014C0009DF81D1081739DF81C10C1739DF82110AB
:1014D00001749DF8201041749DF8251081749DF8C9
:1014E0002410C1749DF8291001759DF828104175CC
:1014F0009DF82D1081759DF82C10C17518211424AC
:101500001346C470845C521C2344D2B2DBB28A42BC
:10151000F8D3435404B0024830BC491C03F0BCBDAE
:10152000270300202DE9F84F0AACAA2794E8001FF2
:10153000304C00263546277067700227A770ADF83B
:1015400000009DF8010020719DF800006071ADF869
:1015500000109DF80100A0719DF80000E071ADF849
:1015600000209DF8010020729DF800006072ADF827
:1015700000309DF80100A0729DF80000E072ADF807
:1015800000809DF8010020739DF800006073ADF8A5
:1015900000909DF80100A0739DF80000E073ADF885
:1015A00000A09DF8010020749DF800006074ADF863
:1015B00000B09DF80100A0749DF80000E074ADF843
:1015C00000C09DF8010020759DF80000607516218F
:1015D0001220E0702046425D6D1C3244EDB2D6B25E
:1015E0008D42F8D34654BDE8F84F0248491C03F039
:1015F00053BD0000270300202DE9F8432B4CAA20FF
:101600002B4F207001266070DFF8A880A67000259F
:101610004146F869FEF780FEFEF77AFFADF800005C
:101620009DF8010020719DF8000060714146B86985
:10163000FEF772FEFEF76CFFADF800009DF80100AA
:10164000A0719DF80000E0714146386AFEF764FE23
:10165000FEF75EFFADF800009DF8010020729DF8D6
:101660000000607242F20F7000909DF80300A072BB
:101670009DF80200E0729DF8010020739DF80000C3
:101680006073A673E6730C201021E07000202246E0
:10169000135C401C2B44C0B2DDB28842F8D35554D1
:1016A000BDE8F8430148491C03F0F6BC27030020BD
:1016B000B40200200000C8422DE9FF4F81B0644809
:1016C000DDE91718DDE9154ADDE91195DDE90F7649
:1016D000DDE913EB4FF0AA0C00F811CB002300F862
:1016E00010CC4FF0F10C00F80FCCDDF804C01A4616
:1016F000ADF800C09DF801C000F80DCC9DF800C009
:1017000000F80CCCDDF808C0ADF800C09DF801C0B1
:1017100000F80BCC9DF800C000F80ACCDDF80CC036
:10172000ADF800C09DF801C000F809CC9DF800C0DC
:1017300000F808CCDDF810C0ADF800C09DF801C07D
:1017400000F807CC9DF800C000F806CCDDF838C0E2
:10175000ADF800C09DF801C000F805CC9DF800C0B0
:1017600000F804CC4FEA176C00F803CC4FEA174C92
:1017700000F802CC4FEA172C00F801CC0770370EA6
:101780004770370C8770370AC77006714FEA1967C0
:1017900047714FEA194787714FEA1927C77180F8D7
:1017A00008902E0E46722E0C86722E0AC672057393
:1017B0004FEA1E6646734FEA1E4686734FEA1E26A0
:1017C000C67380F810E04FEA1B6646744FEA1B466A
:1017D00086744FEA1B26C67480F814B0250E457532
:1017E000250C8575250AC57504764FEA1A65457678
:1017F0004FEA1A4585764FEA1A25C57680F81CA06F
:101800000C0E44770C0C84770C0AC47700F8201F68
:101810004FEA186141704FEA184181704FEA182170
:10182000C17080F804803621322400F82E4C08481C
:10183000845C521C2344D2B2DBB28A42F8D34354B4
:1018400005B00348BDE8F04F491C03F025BC00007B
:101850002703002070B50A4C94F8980101280ED196
:1018600004F1D0006188074A054602F0CDFE618888
:101870002846FEF7CCFC0020608084F8980170BDFB
:101880008208002078000020FEE7000010B5064C1A
:1018900001221021204601F0ACF820460022BDE8CC
:1018A0001040082101F0A5B8000C014010B5064C0D
:1018B00000221021204601F09CF820460122BDE8BC
:1018C0001040082101F095B8000C014070B50122CC
:1018D0000B4D14032146284601F08BF801225603D4
:1018E0003146284601F085F800223146284601F0AD
:1018F00080F821462846BDE87040002201F079B802
:10190000000C014070B5094C01221103204601F082
:1019100070F8651400222946204601F06AF829462D
:101920002046BDE87040012201F063B8000C014080
:1019300070B50122064D14032146284601F059F8DE
:1019400021462846BDE87040002201F052B8000050
:10195000000C01402DE9F041144F04464FF480562D
:1019600000223146384601F044F800254FF4005873
:1019700004F08000802816D000224146384601F04D
:1019800038F86006040E01223146384601F031F87D
:1019900000223146384601F02CF86D1CEDB2082DBE
:1019A000E6D3BDE8F0810122E7E70000000C01402A
:1019B00010B50446FFF78AFF7820FFF7CBFFFFF74B
:1019C000B7FF0020FFF7C6FFFFF7B2FF2046FFF783
:1019D000C1FFFFF7ADFFBDE81040FFF793BF10B5A3
:1019E0000446FFF773FF7820FFF7B4FFFFF7A0FF6F
:1019F0004020FFF7AFFFFFF79BFF2046FFF7AAFF4E
:101A0000FFF796FFBDE81040FFF77CBF70B50024DC
:101A1000002104F1B00000F076F90021084600F042
:101A200072F90021102000F06EF90025012100203C
:101A300000F069F96D1CEDB2802DF7D3641CE4B29F
:101A4000082CE5D370BD10B54FF4487000F018FEB7
:101A50000021AE2000F057F90021084600F053F9AC
:101A60000021102000F04FF90021402000F04BF938
:101A70000021B02000F047F90021812000F043F957
:101A80000021FF2000F03FF90021A12000F03BF9E8
:101A90000021A62000F037F90021A82000F033F93A
:101AA00000213F2000F02FF90021C82000F02BF981
:101AB0000021D32000F027F90021084600F023F987
:101AC0000021D52000F01FF90021802000F01BF933
:101AD0000021D82000F017F90021052000F013F9AB
:101AE0000021D92000F00FF90021F12000F00BF9BE
:101AF0000021DA2000F007F90021122000F003F99C
:101B00000021DB2000F0FFF80021302000F0FBF87E
:101B100000218D2000F0F7F80021142000F0F3F8E8
:101B20000021BDE81040AF2000F0EDB810B50A4626
:101B30000446002102F1B00000F0E5F8102040EA70
:101B40001410002100F0DFF804F00F00BDE8104091
:101B5000002100F0D8B800002DE9F041203A00241F
:101B60000D468046D6B27F2803D900208D1C8046C2
:101B7000EDB2102B294610D0FFF7D8FF164906EB1F
:101B8000460001EB40050121285D00F0BCF8641C13
:101B9000E4B2062CF7D3BDE8F081FFF7C7FF0F4F83
:101BA00004EB06100121385C00F0ADF8641CE4B2CF
:101BB000082CF5D36D1CE9B24046FFF7B7FF0024AF
:101BC00004EB061038440121007A00F09CF8641CF4
:101BD000E4B2082CF4D3DEE7E87D000810800008AA
:101BE0002DE9FF4F4FF0000981B01D46CB4612F1A1
:101BF000FF4F03D382F000424FF0010933491046F2
:101C0000FEF78AFBFEF79DFC1FFA80FA0E9800246F
:101C10006F1E460831E0281B0090401EC1B20A200A
:101C200000F077F8BAFBF0F20A20B2FBF0F100FB0B
:101C30001128BBF1000F06D1BC4204DAB8F1000F45
:101C400020D04FF0010BBC420AD101982E2206FB96
:101C50000400C0B20E9B0299FFF77EFF641CE4B241
:101C600008F13000C2B201980E9B06FB0400C0B21E
:101C70000299FFF771FF641CE4B2AC42CBD305B00C
:101C8000BDE8F08F0098801EC1B20A2000F041F834
:101C9000BAFBF0F10A20B1FBF0F200FB121010B118
:101CA000B9F1010F06D00198202206FB0400C0B252
:101CB0000E9BDDE701982D2206FB0400C0B20E9BAF
:101CC0000299FFF749FF4FF00009D4E700002041D7
:101CD0002DE9F041984617460E46044600250DE0D2
:101CE000434631462046FFF737FF0834E4B2782CEC
:101CF00002D90024B61CF6B26D1CEDB27A5D002A42
:101D0000EED1BDE8F081C0B209B1FFF768BEFFF7C0
:101D10004FBE0246012000E05043491EC9B2FBD22B
:101D200070470000014800F09BBB0000CC0500207C
:101D3000014800F095BB0000A40A0020014800F013
:101D40008FBB0000E80A0020014800F089BB0000BA
:101D5000700B0020014800F083BB00002C0B00201A
:101D600030B590F840500124AC40C56B6C600468FD
:101D700063604368102B036803D099600068C260F9
:101D800030BD9A600068C16030BD704700224FF4DA
:101D90008051014800F02DBE0008014001221103CE
:101DA000014800F026BE00000008014072B6FEE7C0
:101DB00006490020C8610648016941F0040101613B
:101DC000016941F04001016170470000000C0020F2
:101DD00000200240064A0021D16106490A6942F00A
:101DE00002020A614861086940F0400008617047DA
:101DF000000C002000200240044B0022DA61044A5B
:101E0000136943F00103136101807047000C002047
:101E10000020024010B5002306E000BF50F8234028
:101E200041F823405B1C9BB29342F7D310BD0000E6
:101E300014480022C168CB06134904D5CA6942F090
:101E40000202CA611022C3685B0705D5CB6943F063
:101E50000103CB6142F00402C369DB0707D0CB6901
:101E600043F00403CB61C16921F00101C161A2F516
:101E70008071013901D0C2607047C16921F0010150
:101E8000C161704700200240000C002070B505467B
:101E900000F0B4FD0646114C09E0681C07D025B1DE
:101EA00000F0ACFD801BA84201D9032070BDE068A2
:101EB000C007F2D1E068800601D52020E060E0682C
:101EC000C00605D4E069C00702D1E068400703D529
:101ED000FFF7AEFF012070BD002070BD0020024062
:101EE0000EB58DE80E000322694600F001F80EBD24
:101EF0002DE9F0414FF0006516460F460446A84212
:101F00002ED31849A01988422AD200F069FCA4F106
:101F10000060800A05EB8021134800220260816086
:101F20000121C16011A003F007F914490E4800F027
:101F3000B9FB10B912A003F0FFF800250AE000BFBA
:101F400057F8252000232146022000F009FC6D1CD3
:101F5000ADB2241DB542F3D3BDE8F04100F0F6BBAD
:101F6000BDE8F08100000108D8020020B2C1B3FD35
:101F7000D2B3CAFDA3BA25640D0A000058000020A0
:101F8000B2C1B3FDB3C9B9A60D0A000070B50446CD
:101F90000D46006804F03EFA2946FEF757FB0DD3C4
:101FA000606804F037FA2946FEF750FB06D3A068B4
:101FB00004F030FA2946FEF749FB01D2012070BD3A
:101FC000002070BDF8B50024009490F82420254628
:101FD000012A12D0012280F824204A681F23072AF0
:101FE0000DD20668776B521E02EB820293409F432C
:101FF0000B6893401F43776319E00220F8BD066821
:102000000D2A0AD2376BD21F02EB820293409F4304
:102010000B6893401F43376309E0F76A0D3A02EB00
:10202000820293409F430B6893401F43F7620A6804
:10203000072306680A2A0AD3F7680A3A02EB420223
:1020400093409F438B6893401F43F76008E03769D4
:1020500002EB420293409F438B6893401F433761DA
:102060000A68102A01D0112A20D1124B02689A4224
:1020700017D193681B0219D4936843F4000393604B
:102080000968102912D10C490C4A0968B1FBF2F118
:1020900001EB8101490000E0491E00910029FBD1BC
:1020A00004E0816A41F020018162012480F824501B
:1020B0002046F8BD00240140B800002040420F0037
:1020C00070477047704700002DE9F0414FF000075E
:1020D00004003D467ED0A06A002628B9E66284F856
:1020E0002460204600F07EF82046FEF7BBFFA16A80
:1020F000C90600D420B1A06A40F01000A06269E0D7
:10210000A16A21F4885141F00201A1626268E1698B
:10211000237B0A4347EA43010A43A1684FF48077CF
:10212000B94209D0012907D05FF0000194F814C02A
:10213000BCF1010F02D00AE03946F7E7F3B1A36A18
:1021400043F02003A362E36A43F00103E3622368E0
:10215000D3F804C02CF4694C4CEA010CC3F804C059
:1021600021688B68DFF870C003EA0C0313438B60AF
:10217000A168B9420BD0012909D00CE0DFF85CC09E
:10218000A3690CEB43330B4343F40061DFE7218A7F
:102190000D05A5F580152168CB6A23F470032B4348
:1021A000CB62216889680E4B1940914208D1E662E2
:1021B000A16A21F0020141F00101A162BDE8F081B4
:1021C000A06A20F0020040F01000A062E06A40F037
:1021D0000100E0620120F1E7FDF7E1FF00E0FFFF11
:1021E000FE0E1FFF70B586B00025064600950195CE
:1021F0000295039500681A4988422ED119498869C9
:1022000040F400708861886900F400700490886967
:1022100040F0040088618869694600F00400049079
:1022200010200090032001900F4800F0EDFA104CB0
:102230000E48C4E900058020C4E902504000206136
:10224000800060612020C4E90605204600F0B2F954
:1022500008B1FFF7ABFD3462666206B070BD0000E6
:102260000024014000100240000801400800024024
:10227000CC0500202DE9F047894604463B4900681B
:102280003B4F0E1D9046884201D0B84207D13068BE
:1022900010F4702F03D001252846BDE8F08794F88C
:1022A000240001280CD0012084F824002046FEF7E9
:1022B0003DFF05004FF0000004D084F82400EBE758
:1022C0000220EAE7A16A40F60162914341F480717D
:1022D000A1622168B94218D1326812F4702F14D06B
:1022E000A16A41F48011A1623168490505D5A16A4E
:1022F00021F4005141F48051A162A16AC9040AD5B8
:10230000E16A21F00601E16206E0A26A22F480128D
:10231000A2624968E9E7E06284F82400216A15486E
:102320008862216A1448C862216A144808632168D7
:102330006FF0020008602068816841F4807181605C
:10234000216843464A464C31206A00F061F9206812
:102350008168C1F342410729816803D041F48011AB
:10236000816099E741F4A001FAE7000000240140F0
:1023700000280140BB1000082311000809110008C3
:1023800010B590F821100022022905D004218163A4
:1023900080F82020012010BD01680B6823F00E0397
:1023A0000B6001680B6823F001030B6090F840306C
:1023B000C46B012101FA03F3636080F8211080F8F7
:1023C0002020104610BD000010B590F82110002408
:1023D000022903D00421816301243DE001680A68D9
:1023E00022F00E020A6001680A6822F001020A6007
:1023F0001A4A0168914201D1012121E0174A1432A1
:10240000914201D110211BE0144A2832914201D19E
:10241000891515E0114A3C32914201D189140FE02F
:102420000E4A5032914202D14FF4803108E00B4AFB
:102430006432914202D14FF4801101E04FF080717B
:10244000064A083A5160012180F82110002180F8E5
:102450002010416B01B18847204610BD08000240A2
:102460002DE9F05FC16B0C6801680B68D0F840C0C3
:10247000042202FA0CF2494DDFF824A1494E4A4FDA
:10248000DFF828B1DFF828E122422CD05A072AD5FC
:102490000A68920603D40A6822F004020A600168FE
:1024A000A94201D1042219E0514501D1402215E091
:1024B000B14202D14FF4806210E0B94202D14FF430
:1024C00080420BE0594502D14FF4802206E071456D
:1024D00002D14FF4800201E04FF080622F490839A9
:1024E0004A60C16A3BE04FF0020808FA0CF818EAAB
:1024F000040F4FF000094FF0010235D05FEA8378F6
:1025000032D50B689B0605D40B6823F00A030B60D9
:1025100080F821200168A94201D1022219E0514529
:1025200001D1202215E0B14202D14FF4007210E037
:10253000B94202D14FF400520BE0594502D14FF499
:10254000003206E0714502D14FF4001201E04FF075
:102550000072124908394A6080F82090816A002987
:102560001AD0BDE8F05F0847082505FA0CF52542AA
:1025700012D01B0710D50B6823F00E030B6090F8E8
:102580004010C36B02FA01F15960826380F8212088
:1025900080F82090016BE2E7BDE8F09F0800024060
:1025A0001C0002403000024044000240580002403B
:1025B0006C00024030B528B308C8134914221944EE
:1025C000B1FBF2F18900C1631049816302214177B7
:1025D0001A6843F6F0718A43D0E900142143D0E928
:1025E00002452C4321430469214344692143846902
:1025F0002143114319600021416301224277017791
:10260000084630BD012030BDF8FFFDBF000002408C
:1026100070B5044690F82000002501280CD0012058
:1026200084F8200094F821600020012E06D084F860
:1026300020000225284670BD022070BD022684F8C5
:102640002160A0632068066826F001060660204627
:10265000FFF786FBE06A00282068016802D041F09D
:102660000E0106E021F0040101602068016841F0DC
:102670000A0101602068016841F001010160D9E7A9
:1026800070B5044600F0BAF90546601C02D0044853
:102690000078044400F0B2F9401BA042FAD370BDA8
:1026A000AC0000202DE9F047054626480F460126DC
:1026B000017E01290FD00121814601762868DFF8CB
:1026C00088804CF25034022808D0A2462046FFF7FA
:1026D000DDFBA8B131E00220BDE8F0872046FFF71E
:1026E000D5FB08BB0120FFF763FB2046FFF7CEFBBD
:1026F000D8F81010064621F00401C8F810101CE0AC
:102700004FF0FF303860AC6811E02046FFF762FB05
:102710005046FFF7BBFBD8F81010060021F002016D
:10272000C8F8101001D03C6007E004F58064D5E9DA
:10273000020100EB8120A042E7D8002189F818109F
:102740003046C9E7000C0020002002400348016920
:1027500041F080010161002070470000002002402C
:102760002DE9F05F07461C4888460024017E154687
:102770001E46012909D00121814601764CF2503ACA
:102780005046FFF783FB18B122E00220BDE8F09F1E
:10279000012F02D0022F00D00427D346DFF83CA03F
:1027A000220128463146FDF709FD81B208EB4400BD
:1027B000FFF722FB5846FFF769FBDAF8102022F0FA
:1027C0000102CAF8102018B9641CE4B2BC42E7D375
:1027D000002289F81820D9E7000C002000200240D0
:1027E000064900200A69120607D5054A4A60054ACB
:1027F0004A600969090600D501207047002002409F
:1028000023016745AB89EFCD2DE9F84FDFF8B8918B
:10281000002409F1040A0AF1040B23460F270BF1E7
:10282000040EC9E00125A5402A40AA427DD1674E89
:10283000D1F804C0ACEB0608B44532D014DCBCF1CE
:10284000030F3AD009DCBCF1000F2AD0BCF1010F14
:102850001CD0BCF1020F31D11DE0BCF1110F17D01B
:10286000BCF1120F2AD119E0B8F5881F19D006DC87
:10287000B8F5803F15D0B8F5801F1FD111E0B8F52D
:10288000001F0ED0B8F5041F18D10AE0CB6815E080
:10289000CB681B1D12E0CB6808330FE0CB680C330C
:1028A0000CE08B682BB1012B4FF0080303D045617E
:1028B00004E0042302E0056100E00023FF2A01D8C0
:1028C000064601E000F104064FEA840501D9A5F1AE
:1028D0002005D6F8008007FA05FC28EA0C0803FA60
:1028E00005F548EA0508C6F800804D68ED0062D598
:1028F000374DAE6946F00106AE61AD6924F00306BE
:1029000005F001050095334D06EB050CDCF8085089
:10291000A607360F07FA06F825EA0805DFF8B8809B
:10292000404503D14FF0000817E044E0DFF8AC80E9
:10293000404502D14FF001080FE0DFF8A480404588
:1029400002D14FF0020808E0DFF89880404502D13C
:102950004FF0030801E04FF0040808FA06F848EACF
:102960000508CCF808804D68D9F80060ED034D46A5
:1029700001D5164300E096432E604D68DAF80060FA
:10298000AD03554601D5164300E096432E604D68D1
:10299000DBF80060ED025D4601D5164300E096438A
:1029A0002E604D68DEF80060AD02754601D5164315
:1029B00000E096432E60641C0D682A46E5407FF4D3
:1029C00031AFBDE8F88F0000000401400000111095
:1029D000001002400000014000080140000C0140CE
:1029E00000100140001401408068084000D0012020
:1029F00070470AB1016170470904FBE7014880682C
:102A000070470000AC000020024881680278114441
:102A100081607047AC000020074810B5016841F0A4
:102A200010010160032000F095F80F2000F006F877
:102A300000F03EF8002010BD0020024000B5014625
:102A400087B000221E2000F065F81E2000F054F828
:102A50001348C16941F00401C161C06905A900F0D2
:102A600004000690684600F09BF900F0B9F90D49A2
:102A70004000B0FBF1F10D480B4A491E0260416075
:102A800040F2E7320021C0E90321816000F0FAFB47
:102A900010B1012007B000BD044800F021FCF9E7A7
:102AA0000010024040420F0000080040B40B00201C
:102AB0000F4808B5816941F001018161816901F028
:102AC00001010091C16941F08051C161C0690022DA
:102AD00000F0805000900F21901E00F01BF8054878
:102AE000416821F0E06141F00071416008BD0000E3
:102AF0000010024000000140002809DB00F01F0226
:102B0000012191404009800000F1E020C0F800114F
:102B100070470000F0B40E4B1B680C46C3F3022351
:102B2000C3F10705042D00D90425191D072901D279
:102B3000002300E0DB1E012606FA05F1491E2140B4
:102B400099409E40761E16403143F0BC02F02CBBEB
:102B50000CED00E0064900F0070208684FF6FF039D
:102B6000184040EA0220034A104308607047000002
:102B70000CED00E00000FA052DE9F8430546007869
:102B8000354CC00754D0E0690026C00008D4E06985
:102B900040F08050E061E069012600F08050009034
:102BA0002E480168C90512D40168804641F480713D
:102BB0000160FFF723FF074605E000BFFFF71EFF98
:102BC000C01B642823D8D8F80000C005F6D5206AB9
:102BD00010F4407021D0A98801F4407181421CD0CA
:102BE000206A1F49012220F440700A6000220A6016
:102BF0002062C00711D0FFF701FF074641F2883875
:102C000008E000BFFFF7FAFEC11B414502D90320CF
:102C1000BDE8F883206A8007F4D5206A696820F44B
:102C20004070084320621EB1E06920F08050E061EE
:102C30002878800705D56068A96820F440400843DB
:102C400060602878C00605D56068E96820F48000D7
:102C5000084360600020DBE7001002400070004085
:102C600040044242704700002DE9F0470F4605003E
:102C700061D0434E306800F00700B84209D2306896
:102C800020F0070038433060306800F00700B84299
:102C900051D128683B4C810712D5400703D56068A5
:102CA00040F4E06060602878000703D5606840F475
:102CB000605060606068A96820F0F00008436060C0
:102CC0002878C00728D06868012810D02168022819
:102CD00010D0890700292EDA616821F00301014331
:102CE0006160FFF78BFE804641F288390DE0216874
:102CF0008903EFE78901EDE7FFF780FEA0EB08010C
:102D0000494502D90320BDE8F0876068696800F092
:102D10000C00B0EB810FEFD1306800F00700B84233
:102D20000BD9306820F0070038433060306800F07D
:102D30000700B84201D00120E5E72878400705D513
:102D40006068E96820F4E060084360602878000764
:102D500006D56068296920F4605040EAC1006060CF
:102D600000F05EF86168084AC1F30311515CC84085
:102D70000649086006480068FFF760FE0020C2E7C9
:102D8000002002400010024004870008B800002024
:102D9000B000002001490120C86470470000424291
:102DA0000F2202600C4A536803F003034360536828
:102DB00003F0F0038360536803F4E063C360526878
:102DC0004FF4E06303EAD20202610448006800F0B5
:102DD0000700086070470000001002400020024019
:102DE0000448054900684968044AC1F30221515C5E
:102DF000C8407047B8000020001002401487000847
:102E00000448054900684968044AC1F3C221515C7D
:102E1000C8407047B8000020001002401487000826
:102E200012A185B00FC98DE80F0014A0144A0068E4
:102E300004905168134801F00C03042B10D0082BA8
:102E40000ED1C1F38343C9031DF803000AD55168AD
:102E500004AAC1F34041515C0A4A5043B0FBF1F06F
:102E600005B0704708494843FAE70000020304052B
:102E7000060708090A0B0C0D0E0F101001020000C6
:102E80000010024000127A0000093D0010B5044C09
:102E9000A068000603D5FFF7E5FE8020A07210BDF4
:102EA000001002402DE9F84F040070D02078C04D8A
:102EB000C00749D06868C0F38100012807D068685E
:102EC000C0F38100022809D16868C00306D52868CC
:102ED000800339D560680028E7D035E06068B0F538
:102EE000803F0BD010B1B0F5A02F11D0286820F48E
:102EF00080302860286820F4802002E0286840F4B0
:102F000080302860606890B1FFF778FD06460AE0DF
:102F1000286840F480202860F0E700BFFFF76EFDCE
:102F2000801B642873D828688003F7D50CE0FFF76E
:102F300065FD064605E000BFFFF760FD801B6428C5
:102F4000F0D828688003F7D420789A4E80074FF095
:102F500001094FF0000839D5686810F00C0F07D050
:102F60006868C0F38100022809D16868C00306D4EC
:102F70002868800714D52069012808D110E020694D
:102F8000B0B1C6F80090FFF739FD074605E00AE149
:102F9000FFF734FDC01B0228C4D828688007F7D586
:102FA0002868616920F0F80040EAC10028600DE05F
:102FB000C6F80080FFF722FD074604E0FFF71EFD7C
:102FC000C01B022823D828688007F7D42078000780
:102FD0002CD57948A169D9B1C0F80090FFF70EFD52
:102FE000074604E0FFF70AFDC01B02280FD8686AF5
:102FF0008007F7D571484FF4FA510068B0FBF1F043
:10300000009000BF0098411E0091FAD20EE080E0CF
:10301000C0F80080FFF7F2FC074604E0FFF7EEFC83
:10302000C01B022875D8686A8007F7D4207840074B
:1030300060D5E8690027C00008D4E86940F08050F6
:10304000E861E869012700F0805000905C48016861
:10305000C90513D40168834641F480710160FFF70C
:10306000CDFC824606E000BFFFF7C8FCA0EB0A00DB
:1030700064284ED8DBF80000C005F5D5E0680128CB
:103080000AD008B1052813D0286A20F00100286270
:10309000286A20F0040002E0286A40F0010028625B
:1030A000E06841F2883B98B1FFF7A8FC82460BE04C
:1030B000286A40F004002862EEE700BFFFF79EFC9C
:1030C000A0EB0A0159455AD8286A8007F6D50CE0CA
:1030D000FFF794FC824605E0FFF790FCA0EB0A01A5
:1030E00059454CD8286A8007F6D41FB1E86920F00A
:1030F0008050E861E06988B36968C1F38101022901
:1031000044D00228C6F8608004D0FFF777FC04465C
:1031100038E034E0FFF772FC074604E0FFF76EFC8E
:10312000C01B02282BD828688001F7D4206AB0F58C
:10313000803F05D16868A16820F4003008436860CA
:10314000D4E908010843696821F4741108436860F0
:10315000C6F86090FFF752FC044606E025E000BF89
:10316000FFF74CFC001B022809D828688001F7D51E
:103170001BE000BFFFF742FC001B022802D903201E
:10318000BDE8F88F28688001F4D40EE00128F7D05C
:103190006868226A00F48031914204D1616A00F4C7
:1031A0007010884201D00120EAE70020E8E7000023
:1031B000001002400000424280044242B800002059
:1031C000007000407047704710B590F83C20012A0D
:1031D00022D0012280F83C20CA688C6822F4407218
:1031E00022434C6822F4806222430C6822F400627D
:1031F00022430C6922F4805222434C6922F400528B
:103200002243C969002322F480420A4301684A64C8
:1032100080F83C30002010BD022010BD70B590F841
:103220003C20012A26D0012480F83C40022280F86C
:103230003D2003685A689D6822F070060A68324390
:103240005A600D4B02689A4208D0B2F1804F05D007
:103250000A4B9A4202D00A4B9A4204D1496825F09F
:1032600080031943916080F83D40002180F83C10B4
:10327000084670BD022070BD002C014000040040D3
:103280000008004010B5040003D094F83D0010B1D0
:1032900007E0012010BD002084F83C00204600F02B
:1032A0001EF8022084F83D00211D206801F08CFBEF
:1032B000012084F8460084F83E0084F83F0084F83A
:1032C000400084F8410084F8420084F8430084F808
:1032D000440084F8450084F83D00002010BD70478C
:1032E00090F83D10012901D001207047022180F89B
:1032F0003D100168CA6842F00102CA6000680B49CB
:10330000884208D0B0F1804F05D00949884202D0E8
:103310000849884204D1816801F00701062903D0D9
:10332000016841F00101016000207047002C01405C
:1033300000040040000800402DE9F0410D46040063
:1033400003D094F83D0018B108E00120BDE8F081F9
:10335000002084F83C00204600F040F8022084F869
:103360003D002068816844F2070291438160211D7D
:10337000206801F029FB226890689169166A2B6821
:10338000AF69034340F20330814341EA0721A86853
:10339000EF6908434FF6FC418843E96840EA07209B
:1033A000014328692F6A000140EA07300843696831
:1033B0006D6926F0220646EA0515294393602268C6
:1033C000906154F8460B0162012004F81F09E07572
:1033D0002076E0762077A0750020B7E700B585B0AD
:1033E000002100910191029103910068B0F1804F9A
:1033F00016D10C48C16941F00101C161C16901F0F8
:1034000001010491816941F004018161806969468B
:1034100000F004000490032000900348FFF7F4F943
:1034200005B000BD001002400008014070B590F8E2
:103430003E60044690F83F5090F8423090F84320A8
:10344000022021B104290ED0012E1BD114E0012E3F
:1034500018D1012B16D184F83E0084F842000122D5
:103460000021206820E0012D0CD1012A0AD184F826
:103470003F0084F8430014E0012D03D1012B01D15A
:10348000012A01D0012070BD84F83E0084F83F007D
:1034900084F8420084F8430001220021206801F0F2
:1034A000C9FA01220421206801F0C4FA20680168E9
:1034B00041F001010160002070BD704770B5044605
:1034C000006801694FF00005C943890715D4C16838
:1034D000C943890711D4E91E0161012020772068C2
:1034E00080698007204602D0FFF7E7FF04E000F084
:1034F000CDF8204600F07CF9257720680169C943A2
:10350000490717D4C168C943490713D46FF00401B0
:103510000161022020772068806910F4407F2046F6
:1035200002D0FFF7CAFF04E000F0B0F8204600F038
:103530005FF9257720680169C943090716D4C16876
:10354000C943090712D46FF00801016104202077F4
:103550002068C0698007204602D0FFF7AEFF04E074
:1035600000F094F8204600F043F9257720680169BF
:10357000C943C90617D4C168C943C90613D46FF03B
:1035800010010161082020772068C06910F4407F95
:10359000204602D0FFF791FF04E000F077F82046C4
:1035A00000F026F9257720680169C943C90708D1C9
:1035B000C168C943C90704D1891E0161204600F0D2
:1035C00067F920680169C943090609D4C168C9437C
:1035D000090605D46FF0800101612046FFF7F2FD76
:1035E00020680169C943490609D4C168C94349062D
:1035F00005D46FF040010161204600F053F92068C6
:103600000169C94389060BD4C168C943890607D437
:103610006FF0200101612046BDE87040FFF7D3BD87
:1036200070BD000010B586B000210091019102919B
:103630000391124C0368124902221248A34209D195
:103640008B6943F004038B61896901F004010491E3
:1036500081150BE00C4CA3420ED18B6943F004039F
:103660008B61896901F004010491C021CDE9001248
:1036700069460392FFF7C8F806B010BD002C014060
:10368000001002400008014000040040704770B57F
:10369000044690F83C000D4601280AD0012084F829
:1036A0003C0042B1042A18D0082A2AD00C2A4DD155
:1036B00039E0022070BD206801F0CAF920688169F4
:1036C00041F0080181612068816921F00401816174
:1036D000206881692A69114311E0206801F0E0F94E
:1036E0002068816941F4006181612068816921F469
:1036F00080618161206881692A6941EA02218161D2
:1037000024E0206801F0F8F92068C16941F008015F
:10371000C1612068C16921F00401C1612068C169EB
:103720002A69114311E0206801F012FA2068C1698A
:1037300041F40061C1612068C16921F48061C16107
:103740002068C1692A6941EA0221C161002084F828
:103750003C0070BD10B5040003D094F83D0010B1DA
:1037600007E0012010BD002084F83C00204600F056
:103770001FF8022084F83D00211D206801F024F983
:10378000012084F8460084F83E0084F83F0084F865
:10379000400084F8410084F8420084F8430084F833
:1037A000440084F8450084F83D00002010BD00006E
:1037B00008B50C4A01680C48914207D1816941F46F
:1037C00000618161806900F4006009E0074A91426C
:1037D00007D1C16941F00201C161C06900F0020076
:1037E000009008BD002C0140001002400004004081
:1037F0007047000010B50446022249B104290ED0DA
:10380000082913D094F84100012816D0012010BDDA
:1038100094F83E000128F9D184F83E200FE094F896
:103820003F000128F2D184F83F2008E094F84000DE
:103830000128EBD184F8402001E084F841200122E6
:10384000206801F0F7F80F492068884203D1426CE4
:1038500042F4004242642068884208D0B0F1804FB0
:1038600005D00949884202D00849884204D18168BC
:1038700001F00701062903D0016841F00101016050
:10388000002010BD002C0140000400400008004052
:1038900000680349884201D1FFF7B6B870470000BD
:1038A000000800407047704710B504460068416941
:1038B00094F83D20C1F3C011212A0BD151B14169C7
:1038C00021F080014161606B08B1FEF759FD20468F
:1038D00001F01BFA2068416994F83E20C1F3801181
:1038E000222A0BD151B1416921F040014161A06B05
:1038F00008B1FEF745FD204601F0EFF9002010BDAC
:1039000070470000F8B5026804461068D168536932
:1039100010F00F0F4FF0000553D003F0010601F433
:10392000907737435FD0C20705D0CA0503D5226C14
:1039300042F001022264420705D5DA0703D0226C67
:1039400042F002022264820705D5DA0703D0226C16
:1039500042F004022264020707D501F0200232433C
:1039600003D0226C42F008022264226C002A34D078
:10397000800604D5880602D5204601F0CFF92068DC
:103980004069216CC0F38010090700D430B3204691
:1039900001F0A3F92068416949061BD5416921F06E
:1039A00040014161A06BA8B158494163A06BFEF78B
:1039B0000BFD002811D0A06B416B01B0BDE8F040B9
:1039C000084783060FD58B060DD52046BDE8F84085
:1039D00001F0A4B92046FFF793FFF8BD2046FFF79A
:1039E0008FFF2564F8BD266B2023012E52D1C60619
:1039F00050D5CE064ED510685068009050694006EC
:103A00002AD5A16B086840680004000CEAD0A68D96
:103A10008642E7D9E0858869202818D0D06820F44C
:103A20008070D0602068416921F001014161206807
:103A3000416921F04001416184F83E3025632068EE
:103A4000C16821F01001C160A06BFEF799FCA08D48
:103A5000E18D401A81B219E0A08DE18D401A81B24A
:103A6000E08D0028BED00029BCD0D06820F4907032
:103A7000D0602068426922F00102426184F83E3041
:103A800025632068C26822F01002C2602046FFF75A
:103A90000AFFF8BD05062BD50D0629D594F83D0083
:103AA0002128F6D1A068B0F5805F01D12069B0B1BE
:103AB000206A411C2162216800784860E08C401E29
:103AC0000004000CE084E4D12068C16821F080018A
:103AD000C1602068C16841F04001C160F8BD206A42
:103AE0000088C0F308005060206A801C2062E5E76F
:103AF0004006F3D54806F1D5D168204621F04001B3
:103B0000D16084F83D3000F0B3F9F8BDD54B000822
:103B100070B5040004D094F83D00002510B106E013
:103B2000012070BD84F83C50204600F023F824208A
:103B300084F83D002068C16821F40051C16020462E
:103B400001F048F92068016921F490410161206881
:103B5000416921F02A0141612068C16841F40051A6
:103B6000C1602564202084F83D0084F83E000020D8
:103B700070BD00002DE9F04786B000250095019545
:103B8000029503950446DFF86CC103685A48022188
:103B900003225A4E10274FF400594FF0200A4FF0DD
:103BA000800863454DD1836943F480438361836911
:103BB00003F480430493836943F0040383618069C1
:103BC000039200F0040004900802CDE90001694668
:103BD0003046FEF719FE3015CDE90005694630463E
:103BE0000295FEF711FE474E4548C6E90007C6E9B3
:103BF000025835617561C6E9065947463046FEF7F9
:103C0000D9FC08B1FEF7D2F8666374623D4E3C48B9
:103C100044361430C6E90005C6E902573561C6E9E5
:103C2000055A3046F561FEF7C5FC08B1FEF7BEF84F
:103C3000A6630022052125207462FEF76BFF252074
:103C400052E0DFF8C4C0634550D1C36943F4003388
:103C5000C361C36903F400330493836943F004032D
:103C600083618069039200F0040004900420CDE990
:103C7000000169463046FEF7C7FD0820CDE9000582
:103C8000694630460295FEF7BFFD1E4E1C48883639
:103C90003C30C6E90007C6E9025835617561C6E9DE
:103CA000065947463046FEF785FC08B1FEF77EF818
:103CB00066637462134E1248CC362830C6E900059C
:103CC000C6E902573561C6E9055A3046F561FEF787
:103CD00071FC08B1FEF76AF8A663002205212620D0
:103CE0007462FEF717FF2620FEF706FF06B0BDE858
:103CF000F087000000380140001002400008014039
:103D000044000240A40A00200044004090F83E30E5
:103D1000202B0ED159B152B190F83C30012B08D074
:103D2000012380F83C300023036301F0AFB8012089
:103D30007047022070477047704700002DE9F84334
:103D4000044690F83D001F4616460D4620284CD1EB
:103D5000C5B1BEB194F83C00012846D0012084F8DA
:103D60003C004FF00008C4F84080212084F83D005A
:103D7000FEF744FEA6848146E684A068B0F5805F25
:103D800003D004E00120BDE8F883206928B12E4665
:103D90005FF0000584F83C800EE00026FAE7802101
:103DA000204601F0ABF8A0B9AEB116F8010B2168BE
:103DB0004860E08C401EE084E08C4B464FF00002EF
:103DC00000970028EBD14FF04001204601F096F813
:103DD00030B10320D7E735F8020BC0F30800E6E75F
:103DE000202084F83D000020CDE70220CBE7000032
:103DF00070B5044690F83D00202830D169B362B315
:103E000094F83C0001282AD0012084F83C0021626B
:103E1000A284E28400252564212084F83D00636BA0
:103E200010489862636B1048D862636B0F48186340
:103E3000606B134645632668606B321DFEF7E8FB36
:103E400021686FF04000086084F83C5020684169A8
:103E500041F080014161002070BD012070BD022051
:103E600070BD0000A34C0008D14C0008E54B0008D1
:103E700070477047FEE700002DE9F041002500F093
:103E800039FC0F4E00246806070E012240213046FF
:103E9000FEF7AFFD00F0E5F880213046FEF7A4FD07
:103EA00040EA0705002240213046FEF7A2FD00F05F
:103EB000D8F8641CE4B2082CE5D32846BDE8F081AC
:103EC000000C014070B50D46044600F077F820461E
:103ED00000F012F8284600F00FF800F06FF8641CAC
:103EE000E0B200F009F8FFF7C7FF044600F034F82D
:103EF00000F080F8204670BD70B50546082400F03B
:103F000009FC144E18E000BFFEF773FD00F0A9F89D
:103F1000280601D5012200E0002280213046FEF76C
:103F200068FD6806050E00F09CF80122402130462D
:103F3000FEF75FFD00F095F8641EE4B24FF000025A
:103F40004FF040013046DFD2FEF753FDBDE8704030
:103F500000F002B8000C014010B500F0DBFB164C7D
:103F6000002240212046FEF744FD00F07AF80122AD
:103F700080212046FEF73DFD00F0BCFB00F071F80B
:103F8000012240212046FEF734FD00F06AF880212E
:103F90002046FEF729FD00284FF000024FF04001B7
:103FA000204603D0FEF725FD002010BDFEF721FDC1
:103FB00000F057F8012010BD000C014010B500F0D2
:103FC000A9FB0B4C012240212046FEF712FD0122E5
:103FD00080212046FEF70DFD00F043F800228021ED
:103FE0002046FEF706FDBDE8104000F03AB800009C
:103FF000000C014010B500F08DFB0F4C0022402159
:104000002046FEF7F6FC00F02CF800228021204626
:10401000FEF7EFFC00F025F8012240212046FEF7D4
:10402000E8FC00F01EF8012280212046FEF7E1FCAA
:10403000BDE8104000F015B8000C014070B5154601
:104040000E460446FFF7BAFF2046FFF755FF3046FD
:10405000FFF752FF2846FFF74FFFBDE87040FFF71C
:10406000C9BF08B501200090401E0090FCD108BDDA
:104070001CB50446062269463B2000F047F8BDF80F
:10408000000040BA2080BDF8020040BA6080BDF850
:10409000040040BAA0801CBD1CB504460622694637
:1040A000432000F033F8BDF8000040BA2080BDF88E
:1040B000020040BA6080BDF8040040BAA0801CBD78
:1040C00008B500208DF8000001226946752000F037
:1040D0001DF89DF80010682906D0982904D00548DD
:1040E00001F02AF8002008BD03A001F025F8012006
:1040F00008BD0000508800084D505536303530203E
:104100004944203D2025640D0A0000002DE9F041BE
:1041100016460F460546002408E02946D020FFF742
:10412000D1FE6D1C3855641CEDB2E4B2B442F4D338
:10413000BDE8F0810A460146D020FFF77FBF0000AE
:104140003EB50021144800910191124A029102608B
:1041500001248160047301754FF460220461C2611F
:104160004160FDF7B1FF08B1FDF720FE0420CDE965
:1041700000040720029069460748FDF723FF08B1B5
:10418000FDF714FE0449142228390348FEF772F89B
:104190003EBD0000002401409C050020194808B5E0
:1041A000416941F0010141614069002200F00100D4
:1041B000009005210B20FEF7ADFC0B20FEF79CFCC8
:1041C000002205210E20FEF7A5FC0E20FEF794FC30
:1041D000002205210F20FEF79DFC0F20FEF78CFC2E
:1041E000002205211020FEF795FC1020FEF784FC2C
:1041F000002205211120FEF78DFCBDE808401120AA
:10420000FEF77ABC0010024030B52E4DB3B02AAC98
:1042100095E80F0084E80F0000212AA802F068FD4D
:10422000294C1035A06195E80F002EAD85E80F00F0
:1042300000212EA802F05CFD2249E0611C22203101
:104240006846FBF7CBFF0021684602F064FD1D497C
:1042500020601C223C3107A8FBF7C0FF002107A803
:1042600002F059FD174960601C2258310EA8FBF777
:10427000B5FF00210EA802F04EFD1249A0601C22DD
:10428000743115A8FBF7AAFF002115A802F043FD21
:104290000C49E0601C2290311CA8FBF79FFF002115
:1042A0001CA802F038FD074920611C22AC3123A86C
:1042B000FBF794FF002123A802F02DFD606133B0CD
:1042C00030BD00003C860008840000202DE9F04746
:1042D00086B00024364800940194029403948169C6
:1042E00041F010018161816901F01001049181693F
:1042F00041F020018161816901F02001049181690F
:1043000041F004018161816901F004010491816936
:1043100041F0080181618069012200F00800DFF8A6
:1043200094805503049029464046FEF762FBDFF86F
:1043300088A0002243F218315046FEF75AFBDFF8FE
:104340007C906F10002239464846FEF752FB0095DC
:10435000032601250396CDE9015469464046FEF740
:1043600053FA1020CDE9000669464846FEF74CFA9C
:104370003003CDE90005CDE9024669465046FEF717
:1043800043FA022600970396CDE901546946484650
:10439000FEF73AFA4FF44670CDE90005CDE9024642
:1043A00069465046FEF730FA06B0BDE8F0870000D7
:1043B0000010024000100140000C014000080140C4
:1043C00010B592B000240F941C2108A81094FBF79C
:1043D0001EFF20216846FBF71AFF20481E49016096
:1043E00041F61F41C0E90114C721C0E9031444612B
:1043F0008461FFF7AFF908B1FDF7D8FC0F940FA95E
:1044000016481094FEF70AFF08B1FDF7CFFC6020B4
:10441000CDE908040A940B940C940D94002208A989
:104420000E480E94FFF733F908B1FDF7BFFC009476
:104430004FF40050CDE9044002940194039469467E
:1044400006480794FEF7C0FE08B1FDF7AFFC03482D
:10445000FFF7E8F812B010BD002C01401006002054
:1044600010B58CB024216846FBF7D1FE0024174814
:1044700009944FF080410A94C0E900144CF2503185
:10448000C0E90241046184610320CDE900040120F8
:10449000CDE9020406210491CDE90540CDE90741AB
:1044A00069460A48FEF748FF08B1FDF77FFC09940A
:1044B00009A906480A94FEF7B1FE08B1FDF776FC9B
:1044C0003C210248FEF7B2FF0CB010BD5806002098
:1044D00010B58AB0002407941C2168460894FBF7A5
:1044E00096FE1A48184901600721C0E9011440F2FC
:1044F000CF71C0E903148461FFF72CF908B1FDF70F
:1045000055FC079407A911480894FEF787FE08B1E7
:10451000FDF74CFC7020CDE90004029400226946AE
:104520000A480494FFF7B3F808B1FDF73FFC0422F2
:1045300069460648FFF7ABF808B1FDF737FC0348BA
:10454000FFF770F80AB010BD00040040A00600207C
:1045500010B5114C0F480C2120604FF4E130606021
:104560000020A060E060C4E90401A061E061204691
:10457000FFF7CEFA08B1FDF719FC2068C16841F0D9
:104580001001C160BDE81040C82204490248FFF78D
:10459000BDBB0000003801401C0A0020B807002005
:1045A00010B5114C0F480C2120604FF4E1306060D1
:1045B0000020A060E060C4E90401A061E061204641
:1045C000FFF7A6FA08B1FDF7F1FB2068C16841F0DA
:1045D0001001C160BDE81040C82204490248FFF73D
:1045E00095BB000000440040600A002052090020F2
:1045F00010B502F0EBFEBDE8104002F073BFFEE71D
:10460000FEF744FCFEE7000070B50446007815464E
:1046100023286AD136A1601CFBF704FE01F0AEFE30
:10462000FBF7C2FFC0B209285FD131A1E01CFBF744
:10463000F9FD01F0A3FEFBF798FF06462CA1002030
:10464000FBF7F0FD01F09AFEFBF78FFF064428A16F
:104650000020FBF7E7FD01F091FEFBF786FF064423
:1046600023A10020FBF7DEFD01F088FEFBF77DFFB4
:104670003044C01F02F058F8C6B21DA10020FBF75D
:10468000D1FD01F07BFEFBF78FFFC0B286422CD13B
:1046900017A1E01CFBF7C6FD01F070FEFBF784FFDD
:1046A000287213A1601DFBF7BDFD01F067FEFBF74B
:1046B0007BFF68720EA1E01DFBF7B4FD01F05EFE0A
:1046C000FBF772FFC0B2FBF71EFF286008A104F1E0
:1046D0000900FBF7A7FD01F051FEFBF765FFC0B233
:1046E000FBF711FF6860002070BD012070BD000065
:1046F0002C0000001FB50020019002908020009047
:104700000120039069460248FEF77EF81FBD0000B5
:10471000000C01401FB50020029080200090112065
:1047200001900120039069460148FEF76DF81FBD16
:10473000000C0140FDF78EF800F062FC502002F002
:10474000CBFAF7E7142002F0C7FAFBE700F0DCFC35
:10475000FCF72AFD0A2002F0BFFAF7E70023322215
:104760006421184602F036F80D4C0E4D0E4F6FF0D6
:104770000B060E4802F006F802F016FE2080FBF74A
:10478000C2FE2946FBF7C8FD3146FBF735FE394628
:10479000FBF7C2FD60600A2002F09EFAE9E7000024
:1047A000A400002033335340000030412801002092
:1047B00008B500210C2326A20846FDF789FA0C2330
:1047C00025A201210020FDF783FA0C2324A2022157
:1047D0000020FDF77DFA0C2324A203210020FDF721
:1047E00077FA0C2324A204210020FDF771FA254D4D
:1047F000254EDFF89880264F0C24009405230021D5
:104800005020EA69FDF7ECF90094052301215020BE
:104810007268FDF7E5F90523424602215020009415
:10482000FDF7DEF905230022032150200094FDF757
:10483000D7F93868FBF75EFE0246052304215020B5
:104840000094FDF7CDF9282002F046FAD5E70000E4
:10485000726F6C3A000000006465733A000000005B
:10486000646972424153453A000000006469724134
:10487000444A5553543A0000656E636F6465723A5A
:1048800000000000B402002040020020000020418F
:10489000600000201CB51A4C04F10C0604F1180548
:1048A00001F0E0FD01F00EFE1549164801F0F4FD9F
:1048B0003146144801F072FE01F0D4FD124913484C
:1048C000626A01F014FA29460F4801F0B5FDD4E9F7
:1048D0000701CDE9000104F10C000FC801F092FFBF
:1048E000FFF786FE02F048FD00F068FD00F0F0FCE6
:1048F000074801F08BFE052002F0EEF9D0E700003A
:10490000400200204C010020340200204001002021
:104910003401002010B5502080F31188BFF34F8F71
:10492000BFF36F8F03F060F918B104494FF0805066
:104930000860002080F3118810BD000004ED00E045
:1049400030B593B028216846FBF761FC14210AA812
:10495000FBF75DFC002501200F95109511950104D2
:1049600012958DE8230004904FF4E010CDE9081073
:10497000022407946846FEF795FA08B172B6FEE77E
:104980000AA90F2081E831004FF48060CDE90D05C0
:1049900002210AA8FEF768F908B172B6FEE74FF4E3
:1049A000004011900F940FA8FEF7E6F808B172B618
:1049B000FEE7FEF7EFF913B030BD70470148FEF790
:1049C0007DBD0000B40B0020F0B50268164B174CFB
:1049D000174D4FF08047984205D0B84203D0A0420F
:1049E00001D0A84203D122F070064A6832439842AF
:1049F00005D0B84203D0A04201D0A84203D122F48E
:104A00004074CA6822434C6922F08002224302604B
:104A10008A68C2620A688262984201D109690163A8
:104A200001214161F0BD0000002C01400004004064
:104A30000008004010B501F01F030121046A9940ED
:104A40008C430462016A9A401143016210BD000068
:104A500030B5026A22F001020262026A4368846988
:104A600024F073050C682C4322F002058A682A435F
:104A70000A4DA8420BD122F00805CA6823F44073FE
:104A80002A434D6922F004021D438B692B43436086
:104A9000846149684163026230BD0000002C01401E
:104AA00030B5026A22F010020262026A4368846929
:104AB0000D6824F4E64444EA05248D6822F02002BF
:104AC00042EA05120B4DA8420ED1CD6822F08002B9
:104AD00042EA05124D6923F4406343EA85038D6978
:104AE00022F0400243EA85034360846149688163A0
:104AF000026230BD002C014030B5026A22F480729F
:104B00000262036A4268C46923F4007324F07305E7
:104B10000C682C438D6843EA05230C4DA8420ED146
:104B2000CD6823F4006343EA05234D6922F4405223
:104B300042EA05128D6923F4806342EA051242605D
:104B4000C4614968C163036230BD0000002C0140AC
:104B500030B5026A22F480520262046A4268C36974
:104B60000D6823F4E64343EA05238D6824F40054DA
:104B700044EA0534064DA84204D14D6922F480422E
:104B800042EA85124260C36149680164046230BD33
:104B9000002C014070B50C4D0446E968FBF74CFD54
:104BA00011D00A4814F0FF4F04D009498C4203D1B8
:104BB000072105E00D2103E0B4F1804F02D10A2165
:104BC00000684163EC6070BD6800002010060020A2
:104BD0000000A04010B5406A0021C185C184FEF7E5
:104BE0008FFE10BD70B5446A2068406994F83D108E
:104BF000C0F3C0100025212904D118B1E584204656
:104C000000F083F82068406994F83E10C0F38010EB
:104C1000222904D118B1E585204600F05EF8206C09
:104C200040F0100020642046FEF76AFE70BD10B50B
:104C30000146406A0968096889061BD40021C185BC
:104C40000168CA6822F48072CA6001684A6922F069
:104C500001024A6101684A6922F040024A6120214A
:104C600080F83E10016B012904D10168CA6822F066
:104C70001002CA60016B012902D0FFF75CF810BD79
:104C8000818DFEF710FE10BD10B5406A016B012941
:104C900002D0FFF751F810BD818D4908FEF703FEE1
:104CA00010BD10B50146406A0968096889060CD430
:104CB0000021C18401684A6922F080024A610068CB
:104CC000C16841F04001C16010BDFFF7D1F810BDCF
:104CD00010B5406AFFF7CDF810BD0168CA6822F42C
:104CE0009072CA6001684A6922F001024A61016B50
:104CF000012904D10168CA6822F01002CA6020218B
:104D000080F83E100021016370470168CA6822F0F4
:104D1000C002CA60202180F83D10704708B590F8A5
:104D20003E10222901D0022008BD82684FF4805332
:104D30009A4201D1016921B1816A9A421BD04AB1DC
:104D40000AE00268816A5268C2F308020A80816A36
:104D5000891C08E0026972B10268526802F07F02A1
:104D60000A70816A491C8162C18D491E0904090CBF
:104D7000C18503D019E002685268F1E70168CA688A
:104D800022F02002CA600168CA6822F48072CA60F8
:104D900001684A6922F001024A61202180F83E1030
:104DA000016B012903D0FEF7C6FF002008BD0021DA
:104DB00001630168CA6822F01002CA6001680A68CB
:104DC000D20602D50A6849680091818DFEF76BFD15
:104DD000EBE7000070B5044600680169E26821F461
:104DE0004051114301612169A0680843616908438A
:104DF0002168CA6841F20C639A430243CA60206882
:104E00004169A26921F44071114341611E49206842
:104E1000884202D1FDF7F4FF01E0FDF7E1FF00EB6E
:104E2000C00101EB0012606864218000B2FBF0F366
:104E3000B3FBF1F36FF018067343B2FBF0F5B2FB6E
:104E4000F0F605EB8305322303EB0515B5FBF1F511
:104E5000B6FBF1F605F0F00505EB0615B2FBF0F632
:104E6000B2FBF0F0B0FBF1F06FF01802504306EB2C
:104E7000800003EB0010B0FBF1F0216800F00F00A0
:104E80002844886070BD00000038014038B5816258
:104E900082850025134604460564222084F83E00DE
:104EA000A26B13489062A26B1248D062A26B1248A8
:104EB0001063A06B0A4645632168A06B091DFDF7CE
:104EC000A7FB206801684168009184F83C50C168E4
:104ED00041F48071C1602068416941F00101416184
:104EE0002068416941F040014161002038BD000067
:104EF0002F4C0008894C0008E54B00082DE9F041D3
:104F0000984617460E460446069D1DE0681C1BD0B9
:104F10002DB1FDF773FDA0EB0800A84214D920685D
:104F2000C16821F4D071C1602068416921F001019C
:104F30004161202084F83D0084F83E00002084F880
:104F40003C000320BDE8F0812068006836EA0000DC
:104F500004D00020B842D9D00020F3E70120F9E7BF
:104F600038B5104C20680068C043C00615D40E4800
:104F7000C06D0E4DC0F1C80068802046FEF794FC5D
:104F8000012085F89801C82205F1D0012046FEF7DE
:104F9000BDFE2068016840680090BDE838400148C7
:104FA000FEF7B0BC1C0A002000000240E80600200A
:104FB00038B5104C20680068C043C00615D40E48B0
:104FC000006F0E4DC0F1C80068802046FEF76CFCF3
:104FD000012085F89801C82205F1D0012046FEF78E
:104FE00095FE2068016840680090BDE8384001489F
:104FF000FEF788BC600A0020000002408208002002
:105000002DE9F041144FA2B0386AFBF7E6FA80466A
:105010000E46B869FBF7E1FA04460D46F869FBF75E
:10502000DCFA02460D480B46B0F90410B0F90070E6
:10503000B0F90200CDE90571CDE903608DE83001DA
:1050400007A107A800F088F86C2107A800F040F835
:1050500022B0BDE8F0810000B4020020060000206C
:105060002352252E31662A522350252E31662A508E
:105070002359252E31662A5923475925642A475931
:1050800023475825642A475823475A25642A475AF4
:1050900000000000FEE7000070B5C82901D9C8254E
:1050A00000E00D4669B1084C20B101462A46204671
:1050B000FBF794F82A4621460448FEF799FE284655
:1050C00070BD002070BD0000F00600201C0A00200A
:1050D00070B5C82901D9C82500E00D4669B1084C52
:1050E00020B101462A462046FBF778F82A46214699
:1050F0000448FEF77DFE284670BD002070BD00000C
:105100008A080020600A002070B50A4C94F89801C3
:1051100001280DD104F1D000A1780546FCF7D4F8A0
:1051200061882846FBF773F80020608084F89801B6
:1051300070BD0000E80600200FB4054B10B503A9B0
:10514000044A029800F030FA10BC5DF814FB00002D
:1051500021640008200100200FB4084B10B504A9F9
:1051600002AA039800F020FA044602A9002000F0E9
:10517000B9FD204610BC5DF814FB0000E55C00089A
:10518000490050EAC12018BF04204A0D18BF40F062
:10519000010040F2FF72B2EB515F08BF40F0020025
:1051A000012808BF052070470907090E002804DB05
:1051B00000F1E02080F80014704700F00F0000F1CB
:1051C000E02080F8141D70472DE9F0414F1E00EBE0
:1051D000C7010446D1E9000115461E4637F0060214
:1051E0000DD02A463346FBF713F97F1E04EBC703A5
:1051F000D3E90023FBF75EFB37F00602F1D1022F63
:1052000025D0042F13D0062F18BFBDE8F0812A4601
:105210003346FBF7FDF8D4E90A23FBF74BFB2A469C
:105220003346FBF7F5F8D4E90823FBF743FB2A469E
:105230003346FBF7EDF8D4E90623FBF73BFB2A46A0
:105240003346FBF7E5F8D4E90423FBF733FB2A46A2
:105250003346FBF7DDF8D4E90223FBF72BFB2A46A4
:105260003346FBF7D5F8D4E90023BDE8F041FBF75E
:1052700021BB0122FBF734BCFBF71CBB0022134609
:1052800010461146FBF7BDBB024A00201107FBF791
:1052900027BC000001FDFFFF0148006870470000C7
:1052A0002401002002E008C8121F08C1002AFAD118
:1052B00070477047002001E001C1121F002AFBD196
:1052C0007047000001490860704700002401002079
:1052D0002DE9F041314EF06901F09CF8314C304F2E
:1052E000251D4FF4FA68B84215DDA4F802800120AC
:1052F0002070FCF74BFD0020291D286008602A481B
:1053000001F085F828482C3801F081F826482C3027
:1053100001F07DF81AE0254840F6C411B0F9040008
:10532000A0F6C410884211D8F06901F073F8B842B1
:105330000CDC207850B94FF4FA706080FCF72EFD39
:1053400019482C38C06FFBF7E3F828602A68184822
:105350004FF40071002A01DD002200E00122FDF778
:1053600048FB144E3068FFF715FC706801F02CF90B
:10537000286801F0D9F980B2648845464246002188
:1053800002F08EF90C4E316848632A46002120460F
:1053900002F086F931688863BDE8F081B40200202C
:1053A0000000A04168000020B80300200000002099
:1053B000000C014078000020A006002010B5114C20
:1053C0000020606310480068FBF794F8A06304F1C4
:1053D0002C0001F0CAFC206DA0600C48C06980F070
:1053E0000040E060204601F0C0FC606A206608488A
:1053F000406880F00040606604F15800BDE810404D
:1054000001F0B3BC8C03002060000020B402002037
:10541000400200202DE9FF5F82B00021DDE9043069
:10542000020DDDF840B0034318D044F61050A2F24C
:10543000FF3242431514119801281FD0A5EB0B0031
:10544000401C5FEA000A4FF000064E4FDFF838912B
:10545000B046504615D5CAF1000413E01198012456
:105460004AA3012801D16FEA0B010298119AC0E901
:105470000031C0E9024206B0BDE8F09FCBF1000068
:10548000DFE704460021404A491842EB0450CDE9C9
:10549000001012E0E00707D032463B46404649463E
:1054A000FAF7B6FF8046894632463B461046194613
:1054B000FAF7AEFF06460F466410002CEAD1DDE98C
:1054C0000401DDE90023BAF1000F06DAFAF7A0FFC4
:1054D00042464B46FAF79CFF05E0FBF792FA42463C
:1054E0004B46FBF78EFA04460E460022284BFBF78C
:1054F00027FB03D84FF0FF30014607E00022254B81
:1055000020463146FBF7D6F9FBF701FB102409E0F2
:10551000002C0ADB0A220023FBF7B8F8039B303289
:105520001A55641E50EA0102F2D1641C039AC4F1B8
:1055300011031444119A012A03D0012208430DD10A
:105540000AE0084304D000204FF0110B119072E7DD
:10555000A3EB0B056D1E0DE05B4504DD4FF0000273
:1055600005F1010504E003DA4FF00002A5F10105A1
:10557000002AECD002981199C0E90231C0E9004537
:1055800079E70000000014400000F03F3000000008
:105590000000F0430000E03F30380A2801D201202B
:1055A00070470020704700002DE9FF4F95B09B46E3
:1055B0008946064600250FE2252877D10024274694
:1055C000F84A0121059400E0044316F8013F203B0E
:1055D00001FA03F01042F7D130782A2811D06FF089
:1055E0002F033078A0F13002092A16D8059A44F02A
:1055F000020402EB820203EB42021044761C059087
:10560000EFE759F8042B0592002A03DA504244F4DC
:105610000054059044F00204761C30782E2816D1F0
:1056200016F8010F44F004042A280DD06FF02F0261
:105630003078A0F13003092B09D807EB870302EB80
:105640004303C718761CF3E759F8047B761C3078BF
:105650006C280FD006DC4C2817D068280DD06A289B
:1056600014D104E0742810D07A280FD10DE044F44E
:1056700000140AE044F4801401E044F44014727809
:10568000824202D104F58014761C761C307866289C
:105690000BD013DC582877D009DC002875D04528BA
:1056A000F6D04628F4D047281AD19DE118E06328A7
:1056B00035D0642879D0652812D195E1702873D04F
:1056C00008DC6728F1D069286FD06E280DD06F28CC
:1056D00006D1B5E073282CD0752875D0782874D001
:1056E0005A46179990476D1C75E1C4F30250022881
:1056F00009D003280DD0D9F8001004280DD00D6072
:1057000009F1040967E1D9F80010EA17C1E900526C
:10571000F6E7D9F800100D80F2E70D70F0E719F800
:10572000041B8DF8001000208DF80100EA460120CE
:1057300003E059F804AB4FF0FF3061074FF0000170
:1057400002D40DE008F101018846B9420FDA804524
:10575000F8DB1AF808100029F4D108E008F101017B
:1057600088468142FADB1AF808100029F6D105981C
:105770005B46A0EB080721463846179A00F094FADA
:10578000284400EB080507E04DE029E10DE01AF898
:10579000010B5A4617999047B8F10108F7D25B46BA
:1057A00021463846179A13E142E00A220092C4F3D8
:1057B00002524FF0000A022A08D059F804CB032AFB
:1057C0004FEAEC710AD00DE029E02AE009F1070167
:1057D00021F00702F2E802C1914609E00FFA8CFCC1
:1057E0004FEAEC71042A03D14FFA8CFC4FEAEC71BA
:1057F000002907DA0A460021DCF1000C61EB020106
:105800002D2202E0220504D52B228DF8042001224E
:1058100003E0E20701D02022F7E7904659E00A2191
:1058200002E010220DE010214FF0000A00910BE081
:1058300010224FF0000A44F004040827009203E00D
:1058400008224FF0000A0092C4F30252022A05D047
:1058500059F804CB0021032A08D009E009F1070117
:1058600021F00702F2E802C1914605E01FFA8CFC24
:10587000042A01D10CF0FF0C4FF00008220728D5B4
:10588000702806D0009B83F0100353EA0A0305D06A
:105890000EE040228DF80420012208E05CEA0102BB
:1058A00006D030228DF804208DF8050002229046A3
:1058B000009B83F0080353EA0A030AD15CEA010261
:1058C00001D1620705D530228DF804204FF0010880
:1058D0007F1E582804D034A003900EA802900DE03B
:1058E00036A0F9E753466046009AFAF7CFFE8446A1
:1058F0000398825C0298401E029002705CEA0100EC
:10590000F0D1029806A9081A00F1200A600702D512
:1059100024F4803400E00127574502DDA7EB0A009C
:1059200000E0002000EB0A01009005984144401A75
:105930000590E00306D45B462146179A059800F0CF
:10594000B3F90544002706E001A85A46C05D17993F
:1059500090476D1C7F1C4745F6DBE0030CD55B468A
:105960002146179A059800F09FF9054404E030207D
:105970005A46179990476D1C0099481E00900029BF
:10598000F5DC08E0029802995A460078491C029119
:10599000179990476D1CBAF10001AAF1010AF1DCD8
:1059A00065E10000092801003031323334353637E3
:1059B000383961626364656600000000303132335B
:1059C00034353637383941424344454600000000FB
:1059D00000F058F90544761C307800287FF4ECADCF
:1059E00019B02846BDE8F08F620700D4062709F1F8
:1059F000070222F0070CFCE80223E14603F000480E
:105A00005FEA080C02D00FF2702C0DE05FEA045C34
:105A100002D50FF2682C07E05FEAC47C02D00FF2D7
:105A2000602C01E0AFF2700C4FF0FF3823F0004320
:105A3000CDF850C065280CD006DC452809D0462892
:105A40001DD047283DD13DE0662818D067287ED17B
:105A500038E00021112F01DB112000E0781CCDE996
:105A6000000106A90EA8FFF7D5FCDDE90F010E9A8B
:105A700003910021009207F1010A04914DE04FF0DB
:105A800000400097CDE9011006A90EA8FFF7C2FC5F
:105A9000DDE90F0203920E9B11990022DDF80CA0A4
:105AA0000093049211B9791C00EB010AB7EB0A00CC
:105AB00004D4C0F1FF3007F1010A0490AAEB0700FB
:105AC000019044E0012F00DA01270021112F01DDB0
:105AD000112000E03846CDE9000106A90EA8FFF725
